{
  "_format": "hh-sol-artifact-1",
  "contractName": "Batching",
  "sourceName": "contracts/batching.sol",
  "abi": [
    {
      "anonymous": false,
      "inputs": [
        {
          "indexed": false,
          "internalType": "uint256",
          "name": "index",
          "type": "uint256"
        },
        {
          "indexed": false,
          "internalType": "address",
          "name": "from",
          "type": "address"
        },
        {
          "indexed": false,
          "internalType": "address[]",
          "name": "_receiver",
          "type": "address[]"
        },
        {
          "indexed": false,
          "internalType": "uint256[]",
          "name": "_sentAmounts",
          "type": "uint256[]"
        }
      ],
      "name": "BatchTransfer",
      "type": "event"
    },
    {
      "inputs": [
        {
          "internalType": "address[]",
          "name": "_receivers",
          "type": "address[]"
        },
        {
          "internalType": "uint256[]",
          "name": "_sentAmounts",
          "type": "uint256[]"
        }
      ],
      "name": "batchTransactionCall",
      "outputs": [],
      "stateMutability": "payable",
      "type": "function"
    },
    {
      "inputs": [
        {
          "internalType": "uint256",
          "name": "index",
          "type": "uint256"
        }
      ],
      "name": "getMultiCallTransactions",
      "outputs": [
        {
          "components": [
            {
              "internalType": "address",
              "name": "sender",
              "type": "address"
            },
            {
              "internalType": "address[]",
              "name": "receiverArray",
              "type": "address[]"
            },
            {
              "internalType": "uint256[]",
              "name": "sentAmountArray",
              "type": "uint256[]"
            },
            {
              "internalType": "string",
              "name": "message",
              "type": "string"
            },
            {
              "internalType": "uint256",
              "name": "timestamp",
              "type": "uint256"
            }
          ],
          "internalType": "struct Batching.BatchTransferStruct",
          "name": "",
          "type": "tuple"
        }
      ],
      "stateMutability": "view",
      "type": "function"
    }
  ],
  "bytecode": "0x608060405234801561001057600080fd5b5061135c806100206000396000f3fe6080604052600436106100295760003560e01c806397d78e101461002e578063ef55b8df1461006b575b600080fd5b34801561003a57600080fd5b50610055600480360381019061005091906108cb565b610087565b6040516100629190610bc3565b60405180910390f35b61008560048036038101906100809190610e1c565b61029b565b005b61008f6106c2565b600082815481106100a3576100a2610e94565b5b90600052602060002090600502016040518060a00160405290816000820160009054906101000a900473ffffffffffffffffffffffffffffffffffffffff1673ffffffffffffffffffffffffffffffffffffffff1673ffffffffffffffffffffffffffffffffffffffff1681526020016001820180548060200260200160405190810160405280929190818152602001828054801561019757602002820191906000526020600020905b8160009054906101000a900473ffffffffffffffffffffffffffffffffffffffff1673ffffffffffffffffffffffffffffffffffffffff168152602001906001019080831161014d575b50505050508152602001600282018054806020026020016040519081016040528092919081815260200182805480156101ef57602002820191906000526020600020905b8154815260200190600101908083116101db575b5050505050815260200160038201805461020890610ef2565b80601f016020809104026020016040519081016040528092919081815260200182805461023490610ef2565b80156102815780601f1061025657610100808354040283529160200191610281565b820191906000526020600020905b81548152906001019060200180831161026457829003601f168201915b505050505081526020016004820154815250509050919050565b6000349050600081116102e3576040517f08c379a00000000000000000000000000000000000000000000000000000000081526004016102da90610f81565b60405180910390fd5b8151835114610327576040517f08c379a000000000000000000000000000000000000000000000000000000000815260040161031e90610fed565b60405180910390fd5b60005b835181101561047c5782818151811061034657610345610e94565b5b602002602001015182101561035a57600080fd5b82818151811061036d5761036c610e94565b5b602002602001015182610380919061103c565b9150600084828151811061039757610396610e94565b5b6020026020010151905060008173ffffffffffffffffffffffffffffffffffffffff168584815181106103cd576103cc610e94565b5b60200260200101516040516103e1906110a1565b60006040518083038185875af1925050503d806000811461041e576040519150601f19603f3d011682016040523d82523d6000602084013e610423565b606091505b5050905080610467576040517f08c379a000000000000000000000000000000000000000000000000000000000815260040161045e90611102565b60405180910390fd5b5050808061047490611122565b91505061032a565b5060008111156105345760003373ffffffffffffffffffffffffffffffffffffffff16826040516104ac906110a1565b60006040518083038185875af1925050503d80600081146104e9576040519150601f19603f3d011682016040523d82523d6000602084013e6104ee565b606091505b5050905080610532576040517f08c379a0000000000000000000000000000000000000000000000000000000008152600401610529906111b7565b60405180910390fd5b505b60006040518060a001604052803373ffffffffffffffffffffffffffffffffffffffff1681526020018581526020018481526020016040518060400160405280600b81526020017f7478436f6d706c65746564000000000000000000000000000000000000000000815250815260200142815250908060018154018082558091505060019003906000526020600020906005020160009091909190915060008201518160000160006101000a81548173ffffffffffffffffffffffffffffffffffffffff021916908373ffffffffffffffffffffffffffffffffffffffff1602179055506020820151816001019080519060200190610634929190610707565b506040820151816002019080519060200190610651929190610791565b50606082015181600301908051906020019061066e9291906107de565b506080820151816004015550507fb6ee2db468e7e9388ac5f0fa465afafc3f61ecc62c18c1a428432b75e7e51f816000805490503385856040516106b594939291906112d3565b60405180910390a1505050565b6040518060a00160405280600073ffffffffffffffffffffffffffffffffffffffff168152602001606081526020016060815260200160608152602001600081525090565b828054828255906000526020600020908101928215610780579160200282015b8281111561077f5782518260006101000a81548173ffffffffffffffffffffffffffffffffffffffff021916908373ffffffffffffffffffffffffffffffffffffffff16021790555091602001919060010190610727565b5b50905061078d9190610864565b5090565b8280548282559060005260206000209081019282156107cd579160200282015b828111156107cc5782518255916020019190600101906107b1565b5b5090506107da9190610864565b5090565b8280546107ea90610ef2565b90600052602060002090601f01602090048101928261080c5760008555610853565b82601f1061082557805160ff1916838001178555610853565b82800160010185558215610853579182015b82811115610852578251825591602001919060010190610837565b5b5090506108609190610864565b5090565b5b8082111561087d576000816000905550600101610865565b5090565b6000604051905090565b600080fd5b600080fd5b6000819050919050565b6108a881610895565b81146108b357600080fd5b50565b6000813590506108c58161089f565b92915050565b6000602082840312156108e1576108e061088b565b5b60006108ef848285016108b6565b91505092915050565b600073ffffffffffffffffffffffffffffffffffffffff82169050919050565b6000610923826108f8565b9050919050565b61093381610918565b82525050565b600081519050919050565b600082825260208201905092915050565b6000819050602082019050919050565b6000610971838361092a565b60208301905092915050565b6000602082019050919050565b600061099582610939565b61099f8185610944565b93506109aa83610955565b8060005b838110156109db5781516109c28882610965565b97506109cd8361097d565b9250506001810190506109ae565b5085935050505092915050565b600081519050919050565b600082825260208201905092915050565b6000819050602082019050919050565b610a1d81610895565b82525050565b6000610a2f8383610a14565b60208301905092915050565b6000602082019050919050565b6000610a53826109e8565b610a5d81856109f3565b9350610a6883610a04565b8060005b83811015610a99578151610a808882610a23565b9750610a8b83610a3b565b925050600181019050610a6c565b5085935050505092915050565b600081519050919050565b600082825260208201905092915050565b60005b83811015610ae0578082015181840152602081019050610ac5565b83811115610aef576000848401525b50505050565b6000601f19601f8301169050919050565b6000610b1182610aa6565b610b1b8185610ab1565b9350610b2b818560208601610ac2565b610b3481610af5565b840191505092915050565b600060a083016000830151610b57600086018261092a565b5060208301518482036020860152610b6f828261098a565b91505060408301518482036040860152610b898282610a48565b91505060608301518482036060860152610ba38282610b06565b9150506080830151610bb86080860182610a14565b508091505092915050565b60006020820190508181036000830152610bdd8184610b3f565b905092915050565b600080fd5b7f4e487b7100000000000000000000000000000000000000000000000000000000600052604160045260246000fd5b610c2282610af5565b810181811067ffffffffffffffff82111715610c4157610c40610bea565b5b80604052505050565b6000610c54610881565b9050610c608282610c19565b919050565b600067ffffffffffffffff821115610c8057610c7f610bea565b5b602082029050602081019050919050565b600080fd5b610c9f81610918565b8114610caa57600080fd5b50565b600081359050610cbc81610c96565b92915050565b6000610cd5610cd084610c65565b610c4a565b90508083825260208201905060208402830185811115610cf857610cf7610c91565b5b835b81811015610d215780610d0d8882610cad565b845260208401935050602081019050610cfa565b5050509392505050565b600082601f830112610d4057610d3f610be5565b5b8135610d50848260208601610cc2565b91505092915050565b600067ffffffffffffffff821115610d7457610d73610bea565b5b602082029050602081019050919050565b6000610d98610d9384610d59565b610c4a565b90508083825260208201905060208402830185811115610dbb57610dba610c91565b5b835b81811015610de45780610dd088826108b6565b845260208401935050602081019050610dbd565b5050509392505050565b600082601f830112610e0357610e02610be5565b5b8135610e13848260208601610d85565b91505092915050565b60008060408385031215610e3357610e3261088b565b5b600083013567ffffffffffffffff811115610e5157610e50610890565b5b610e5d85828601610d2b565b925050602083013567ffffffffffffffff811115610e7e57610e7d610890565b5b610e8a85828601610dee565b9150509250929050565b7f4e487b7100000000000000000000000000000000000000000000000000000000600052603260045260246000fd5b7f4e487b7100000000000000000000000000000000000000000000000000000000600052602260045260246000fd5b60006002820490506001821680610f0a57607f821691505b60208210811415610f1e57610f1d610ec3565b5b50919050565b600082825260208201905092915050565b7f496e73756666696369656e742042616c616e6365000000000000000000000000600082015250565b6000610f6b601483610f24565b9150610f7682610f35565b602082019050919050565b60006020820190508181036000830152610f9a81610f5e565b9050919050565b7f6c65737320696e7075742070726f766964656400000000000000000000000000600082015250565b6000610fd7601383610f24565b9150610fe282610fa1565b602082019050919050565b6000602082019050818103600083015261100681610fca565b9050919050565b7f4e487b7100000000000000000000000000000000000000000000000000000000600052601160045260246000fd5b600061104782610895565b915061105283610895565b9250828210156110655761106461100d565b5b828203905092915050565b600081905092915050565b50565b600061108b600083611070565b91506110968261107b565b600082019050919050565b60006110ac8261107e565b9150819050919050565b7f5472616e73666572206661696c65642e00000000000000000000000000000000600082015250565b60006110ec601083610f24565b91506110f7826110b6565b602082019050919050565b6000602082019050818103600083015261111b816110df565b9050919050565b600061112d82610895565b91507fffffffffffffffffffffffffffffffffffffffffffffffffffffffffffffffff8214156111605761115f61100d565b5b600182019050919050565b7f46726f6d3a207478206661696c65640000000000000000000000000000000000600082015250565b60006111a1600f83610f24565b91506111ac8261116b565b602082019050919050565b600060208201905081810360008301526111d081611194565b9050919050565b6111e081610895565b82525050565b6111ef81610918565b82525050565b600082825260208201905092915050565b600061121182610939565b61121b81856111f5565b935061122683610955565b8060005b8381101561125757815161123e8882610965565b97506112498361097d565b92505060018101905061122a565b5085935050505092915050565b600082825260208201905092915050565b6000611280826109e8565b61128a8185611264565b935061129583610a04565b8060005b838110156112c65781516112ad8882610a23565b97506112b883610a3b565b925050600181019050611299565b5085935050505092915050565b60006080820190506112e860008301876111d7565b6112f560208301866111e6565b81810360408301526113078185611206565b9050818103606083015261131b8184611275565b90509594505050505056fea26469706673582212200bfe5e23fded63b5a1b6a9885ac4407796ed3bf730e9bf2807c84b3f13e6aab964736f6c63430008090033",
  "linkReferences": {},
  "deployedLinkReferences": {}
}